:08000000803102288731FB2F3B
:100F5C008B170B17210099171912191699161917B7
:100F6C00991423008F0121008F0122008F013C0076
:100F7C008F0103303D00AF00F03029009F059E1615
:100F8C001E101E129D019C0114309B009E17873170
:100F9C00D3278731D02F80310228F101F2012200B2
:100FAC008F14D030F000CA30890BDA2FF00BDA2F07
:100FBC0022008F10D030F000CA30890BE32FF00BD9
:100FCC00E32F0130F1070030F23D7208803AF00057
:100FDC0080307002031DF42F14307102031CF72FA4
:100FEC00F82FD52F22008F140800F301F4012000F4
:040FFC008731AE2F5C
:020000040001F9
:04000E00E43FFF3E8E
:00000001FF
